:020000040800F2
:10000000680B002069020008F3180008E1100008DE
:100010003D180008010600086325000800000000E4
:10002000000000000000000000000000651E000845
:10003000390E000800000000E91C000855200008E7
:10004000830200088302000883020008830200087C
:10005000830200088302000883020008830200086C
:10006000830200088302000883020008830200085C
:10007000830200088302000883020008830200084C
:100080008302000883020008830200085107000869
:100090001507000883020008830200088302000895
:1000A000830200088302000883020008830200081C
:1000B00083020008C12000088302000883020008B0
:1000C00083020008830200088302000883020008FC
:1000D00083020008692400088302000883020008E4
:1000E00083020008830200088302000883020008DC
:1000F00083020008830200088302000883020008CC
:100100008302000883020008F5210008830200082A
:1001100083020008830200088302000883020008AB
:10012000830200088302000883020008830200089B
:10013000830200088302000883020008830200088B
:10014000830200088302000883020008830200087B
:10015000830200088302000883020008830200086B
:10016000830200088302000883020008830200085B
:10017000830200088302000883020008830200084B
:10018000830200088302000800F002F800F05CF827
:100190000AA090E8000C82448344AAF10107DA45E2
:1001A00001D100F051F8AFF2090EBAE80F0013F0D8
:1001B000010F18BFFB1A43F001031847DC2C0000A5
:1001C000FC2C00000A444FF0000C10F8013B13F027
:1001D000070408BF10F8014B1D1108BF10F8015BA0
:1001E000641E05D010F8016B641E01F8016BF9D193
:1001F00013F0080F1EBF10F8014BAD1C0C1B09D1EA
:100200006D1E58BF01F801CBFAD505E014F8016B5B
:1002100001F8016B6D1EF9D59142D6D370470000ED
:100220000023002400250026103A28BF78C1FBD8FF
:10023000520728BF30C148BF0B6070471FB502F09E
:1002400020FE1FBD10B510BD00F033F81146FFF7BA
:10025000F5FF02F0A9F900F051F803B4FFF7F2FF3F
:1002600003BC02F080F900000948804709480047B4
:10027000FEE7FEE7FEE7FEE7FEE7FEE7FEE7FEE756
:10028000FEE7FEE704480549054A064B70470000B3
:10029000592000088901000868050020680B00202B
:1002A0006807002068070020704770477047704754
:1002B0007047754600F028F8AE460500694653467B
:1002C00020F00700854618B020B5FFF7DBFFBDE83A
:1002D00020404FF000064FF000074FF000084FF0AD
:1002E000000B21F00701AC46ACE8C009ACE8C0093E
:1002F000ACE8C009ACE8C0098D4670470446AFF3CE
:1003000000802046FFF7A9FF004870470405002041
:1003100021B1826842F00102826003E0826822F02B
:1003200001028260704700000021084A1168084AF3
:100330001140D0E900231A4383681A43C3681A4363
:100340001143044AC2F8041370470000042301401B
:10035000E030FCFF002001400146C86C80B27047CD
:100360000246002013680B400BB1012000E0002082
:100370007047000030B50246002000235068104C42
:1003800020400D790C6844EA0524204350609068B1
:100390000C4C2040D1E903542C438D682C434D79FB
:1003A00044EA450420439060D06A20F470000C7D3C
:1003B000641EE4B2234340EA0350D06230BD000023
:1003C000FFFEFFFCFDF7FFC0F0B504460D46002020
:1003D0000021092D11DDE068A5F10A0606EB4607AC
:1003E000072606FA07F18843A5F10A0606EB46063A
:1003F00003FA06F10843E0600CE0206905EB4507CD
:10040000072606FA07F1884305EB450603FA06F1CD
:1004100008432061072A0FDA606B561E06EB860739
:100420001F2606FA07F18843561E06EB860605FAD4
:1004300006F10843606322E00D2A0FDA206BD61F15
:1004400006EB86071F2606FA07F18843D61F06EB40
:10045000860605FA06F10843206310E0E06AA2F17F
:100460000D0606EB86071F2606FA07F18843A2F160
:100470000D0606EB860605FA06F10843E062F0BDBC
:10048000816841F0804181607047000000B58DB007
:100490000121084601F054FC0121022001F050FC2A
:1004A0000121042001F04CFC0121080201F068FC4C
:1004B0001F200B9003208DF8300000208DF83300B2
:1004C0000BA9204800F0B9FC03200B908DF83000F8
:1004D00000208DF833000BA91B4800F0AEFC032070
:1004E0000B908DF8300000208DF833000BA91748D1
:1004F00000F0A3FC0121080201F052FC00214FF49E
:10050000807001F04DFC002007900A9009904FF494
:100510008030089007A8FFF707FF002001908DF8B2
:1005200008008DF809000390059001208DF818004F
:1005300001A90748FFF71EFF01210548FFF7E8FE64
:100540000DB000BD0000024000040240000802405F
:100550000020014000B52548007870B94FF24840AE
:10056000234908804FF4FA60224908802248006835
:100570002249086001201D4908702048006800F5E4
:100580007A701D490968884207D1002018490880FF
:100590004FF4FA701749088027E01848006800F205
:1005A000DC5015490968884204D14EF69000104984
:1005B00008801AE01148006800F26C700E49096862
:1005C000884204D140F2EE200A4908800DE00B4831
:1005D000006800F6FC0008490968884205D103203C
:1005E00001F0C2FC00200249088000BD1C00002070
:1005F0001000002018000020000000202000002033
:1006000000BFFEE700B58BB00121084601F098FB62
:100610000121480601F0A4FB4FF4C05009900220CC
:100620008DF8280000208DF82A0003208DF829007D
:1006300001208DF82B0009A9344800F0FEFB0922A7
:100640000B21324800F041FC09220C212F4800F018
:100650003CFC00208DF81E008DF81F008DF8200056
:1006600001208DF8210000208DF822008DF8230054
:100670008DF81A008DF81B0006208DF81C0005204F
:100680008DF81D000320ADF8180006A9204800F0E1
:10069000FAF900208DF812008DF8130001208DF872
:1006A00014000020ADF80800ADF80A00ADF80C0009
:1006B000ADF80E00ADF8100001208DF8150002A86D
:1006C00000F0C4F801220221114800F0D3F91420EF
:1006D0008DF8040001208DF8050000208DF806003B
:1006E00001208DF8070001A801F004F913208DF80E
:1006F000040000208DF8050001208DF806008DF81B
:10070000070001A801F0F6F80BB000BD00000240A0
:100710000064004010B502210A4800F01BF978B1CE
:100720000421084800F03EF80749064800F01EF88A
:10073000064A0021034800F030FA044801F080F82E
:1007400010BD000000640040080000328402002058
:1007500010B50121044800F0FDF818B1012102484C
:1007600000F020F810BD00000064004000220C4B97
:10077000994202D10023836111E0C1F3130201F019
:1007800000730BB1C2600AE001F080630BB102613B
:1007900005E001F000630BB1826000E04260704749
:1007A0007000F030B1F5007F3AD00FDC202928D05E
:1007B00006DC01291CD004291DD0082940D11DE0E8
:1007C000402921D0B1F5807F3AD126E0B1F5004F24
:1007D00031D006DCB1F5806F25D0B1F5006F2FD197
:1007E00024E0B1F5803F12D0B1F5003F28D111E0EF
:1007F000154A826025E00822C26022E01022C26011
:100800001FE0082202611CE01022026119E00822A8
:10081000426016E01022426013E00422426010E0C1
:10082000042242600DE0042242600AE0002282615C
:100830000422426005E0002282610422426000E05E
:1008400000BF00BF704700000101010010B500218A
:10085000837A012202FA03F13D4A126842F0010252
:100860003B4B1A603A4A1C3212688A43384B1C339D
:100870001A60027BCAB9364A0C3212688A43344B7A
:100880000C331A604288C38842EA0343304A40323C
:10089000847A42F834300288838842EA03432C4A3F
:1008A0004032847A02EBC4025360027B012A19D1E0
:1008B000274A0C3212680A43254B0C331A604288CF
:1008C000038842EA0343224A4032847A42F83430B1
:1008D000C288838842EA03431D4A4032847A02EB8D
:1008E000C4025360C27A3AB9194A121D12688A4387
:1008F000174B1B1D1A6006E0154A121D12680A43A9
:10090000134B1B1D1A60028932B9114A1432126846
:100910008A430F4B14331A600289012A06D10C4A0C
:10092000143212680A430A4B14331A60427B012ABC
:1009300006D1074A1C3212680A43054B1C331A6061
:10094000034A126822F00102014B1A6010BD000038
:100950000066004070B504460D46002660692840D8
:10096000002871D0B5F5807F5CD010DC082D35D023
:1009700006DC012D20D0022D24D0042D72D127E0D9
:10098000102D31D0202D35D0402D6BD138E0B5F56C
:10099000004F60D009DCB5F5007F49D0B5F5806F18
:1009A0004CD0B5F5006F5DD14FE0B5F5803F2DD04F
:1009B000B5F5003F56D12FE0A0682D4900F0F8F9B9
:1009C000064651E0E068032100F0F2F906464BE0EC
:1009D000E068082100F0ECF9064645E0E0681021E7
:1009E00000F0E6F906463FE02069032100F0E0F957
:1009F000064639E02069082100F0DAF9064633E0BE
:100A00002069102100F0D4F906462DE06068082125
:100A100000F0CEF9064627E06068102100F0C8F922
:100A2000064621E0A069012100F0C2F906461BE05C
:100A3000A069022100F0BCF9064615E0A069042176
:100A400000F0B6F906460FE00FE0A069702100F053
:100A5000AFF9064608E06068042100F0A9F90646EF
:100A600002E0FFE7002600BF00E00026304670BD30
:100A7000010101001AB143690B43436102E043697C
:100A80008B434361704730B5024600200023146851
:100A900024F002041460146844F00104146000E0BF
:100AA0005B1C546804F001041CB94FF6FF74A342A8
:100AB000F6D1546804F001040CB900206CE08C7984
:100AC000012C04D1146844F08004146003E014681D
:100AD00024F080041460CC79012C04D1146844F013
:100AE0004004146003E0146824F0400414600C7A9D
:100AF000012C04D1146844F02004146003E014684D
:100B000024F0200414604C7A012C04D1146844F0C1
:100B10001004146003E0146824F0100414608C7A4C
:100B2000012C04D1146844F00804146003E0146834
:100B300024F008041460CC7A012C04D1146844F029
:100B40000404146003E0146824F0040414608C7836
:100B5000A407CD7844EA05640D7944EA05444D794B
:100B600044EA05540D886D1E2C43D461146824F0AA
:100B700001041460002300E05B1C546804F00104CD
:100B80001CB14FF6FF74A342F6D1546804F001047F
:100B90000CB1002000E0012030BD10B500F5D87385
:100BA00003EB01131B6803F004031372137A53B9A8
:100BB00000F5D87303EB01131B6840F2FF7404EADD
:100BC0005353136009E000F5D87303EB01131B685E
:100BD0006FF0604404EAD303536000F5D87303EB6D
:100BE00001131B6803F00203537200F5D87303EB83
:100BF00001135B6803F00F03937200F5D87303EBE6
:100C000001135B681B0AD37400F5D87303EB01135F
:100C10009B68D37200F5D87303EB01139B681C0A21
:100C2000147300F5D87303EB01139B681C0C547309
:100C300000F5D87303EB01139B681B0E937300F54B
:100C4000D87303EB0113DB68D37300F5D87303EBA0
:100C50000113DB681C0A147400F5D87303EB01134D
:100C6000DB681C0C547400F5D87303EB0113DB68CC
:100C70001B0E937421B9C36843F02003C36003E0E3
:100C8000036943F02003036110BD10B50246002044
:100C9000936803F08063B3F1806F00D110E0936834
:100CA00003F00063B3F1006F01D1012008E0936805
:100CB00003F08053B3F1805F01D1022000E00420F3
:100CC000042874D002F5C07303EB00131B6803F013
:100CD000010402F5C07303EB00131C600B7A7BB9AF
:100CE0004B7A0C8843EA445302F5C07404EB0014B9
:100CF0002468234302F5C07404EB0014236010E061
:100D00000B7A4C6843EAC4034C7A234302F5C0745F
:100D100004EB00142468234302F5C07404EB0014B0
:100D200023608B7A03F00F038B7202F5C07303EB21
:100D300000135B6823F00F0402F5C07303EB00138C
:100D40005C6002F5C07303EB00135B688C7A23438D
:100D500002F5C07404EB001463608B7B1C064B7BB4
:100D600044EA03440B7B44EA0323CC7A234302F591
:100D7000C07404EB0014A3608B7C1C064B7C44EA1B
:100D800003440B7C44EA0323CC7B234302F5C07469
:100D900004EB0014E36002F5C07303EB00131B685F
:100DA00043F0010402F5C07303EB00131C6010BD97
:100DB0000246002002EA01030BB1012000E00020FE
:100DC0007047000010B500F025FB002016490870A0
:100DD00000F0C8F800F0A8F804280FD113480078F4
:100DE00028B900201249087000F08CFC0EE00F4872
:100DF000007801280AD1FFF7ADFB07E000F094F876
:100E0000032803D100F06EFC00F06CF900F08CF8C0
:100E100010B901F0E9F805E00648008801F0FAF899
:100E200000F0CEFF10BD0000080400202C000020C0
:100E30001C000020180000207047F0B50A46002171
:100E40000023002400BF3DE0012505FA01F31568E9
:100E500005EA03049C4234D105684F000326BE40D6
:100E6000B543056015794E00B54006683543056009
:100E70001579012D02D01579022D16D185684F0004
:100E80000326BE40B543856055794E00B54086685F
:100E900035438560456801268E40B5434560456809
:100EA00096798E40B6B235434560C5684F0003263B
:100EB000BE40B543C560D5794E00B540C6683543E0
:100EC000C560491C1029BFD3F0BDF0B50023002434
:100ED0004D07ED0E02FA05F3CE1000F1200555F88E
:100EE00026504E07F70E0F26BE40B543CF1000F137
:100EF000200646F82750CE1000F1200555F8265060
:100F000045EA0304CE1000F1200545F82640F0BD67
:100F10000246002013690B400BB1012000E00020C5
:100F20007047018370470000014800787047000057
:100F30002D00002010B50446072301222146084851
:100F4000FFF742FA0648FFF79BFA00BF0221044868
:100F5000FFF706FA0028F9D00148FFF7FDF910BDA8
:100F60000020014000205C4908705C4981F8640061
:100F700015E00021594890F864205748801C20F85B
:100F80001210564890F8642053481A3020F8121076
:100F9000524890F86400401C504981F864004F4862
:100FA00090F864000A28E4DB4C48808A022815DDAA
:100FB0004A48008B202811DC0A2147480278801C0F
:100FC00020F812100321801E02781A3020F8121027
:100FD0001A380078401C4049087018E03F48008BE0
:100FE000202814DD3D48408B462810DA0A213A4873
:100FF0000278801C20F812100221801E02781A301C
:1010000020F812101A380078401C3349087001206B
:10101000324981F8640055E0304890F864000528B2
:1010200049D02E4890F86410143030F8310002286E
:101030001CDD2A4890F86410143000EBC100808851
:10104000202813DC254890F8641023480278801C7F
:1010500020F812100321801E02781A3020F8121096
:101060001A380078401C1C49087024E01B4890F88E
:101070006410143000EBC100808820281BDD174865
:1010800090F86410143000EBC100C0883C2812DADC
:10109000124890F8641010480278801C20F8121052
:1010A0000221801E02781A3020F812101A380078B7
:1010B000401C09490870094890F86400401C074921
:1010C00081F86400054890F864000928A4DB03480F
:1010D000008B0149488670470804002098020020D0
:1010E00000BFFEE7C44890F8780001280FD14DF604
:1010F000F000C24908804EF69870C149088001206E
:10110000C0490870C0480068C04908603DE0BA485E
:1011100090F8790001280FD14DF6F000B74908800A
:1011200041F26800B64908800120B6490870B64807
:101130000068B649086028E0AF4890F87A000128B6
:101140000FD142F21070AD49088041F26800AC49FD
:1011500008800120AB490870AB480068AB490860C3
:1011600013E0A54890F87B0001280ED142F21070E0
:10117000A24908804EF69870A14908800120A14933
:101180000870A1480068A14908609E4800780128BD
:101190001ED09F4840880A280FD09D4840880928C3
:1011A0000BD09B488088092807D09948C088092817
:1011B00003D097480089092817D19548408B022809
:1011C00007D142F234108D49088000208C490880F4
:1011D00003E18F48408B0328FAD143F2C8208749A6
:1011E0000880002086490880F7E0834890F87D0059
:1011F000012817D086484088042813D084484088A6
:1012000005280FD08248808804280BD08048808829
:10121000052807D07E48C088042803D07C48C088B1
:1012200005281BD17A48408B032807D07848808B4B
:10123000032803D07648C08B032807D14CF63850DA
:101240006E49088000206E490880C6E04DF6CC60EB
:101250006A49088000206A490880BEE06C484088DE
:10126000012813D06A48408802280FD06848808837
:1012700001280BD066488088022807D06448C088BF
:10128000012803D06248C08802281DD16048408BE5
:10129000032807D05E48808B032803D05C48C08BAE
:1012A000032808D141F270705549088042F2341089
:1012B0005249088091E040F6AC505149088042F212
:1012C00034104E49088088E051484088032807D0F0
:1012D0004F488088032803D04D48C08803281DD17B
:1012E0004B48408B032807D04948808B032803D004
:1012F0004748C08B032808D14EF69000404908802B
:101300004DF6CC603D49088067E04FF254203C49DF
:1013100008804DF6CC60394908805EE03C48408842
:10132000062807D03A488088062803D03848C08865
:1013300006281DD13648408B032807D03448808BBF
:10134000032803D03248C08B032808D141F27070C3
:101350002B4908804DF6CC60284908803DE040F6D6
:10136000AC50274908804DF6CC602449088034E011
:1013700027484088072813D02548408808280FD0E0
:101380002348808807280BD021488088082807D068
:101390001F48C088072803D01D48C08808281CD1D2
:1013A0001B48408B032807D01948808B032803D0A3
:1013B0001748C08B032808D14EF6900010490880CA
:1013C00042F234100D49088007E04FF254200C49D6
:1013D000088042F23410094908800A480078012840
:1013E00009D10A480068C83007490968884202D212
:1013F0000020044908707047980200201000002067
:1014000012000020240000200000002028000020FE
:101410000804002000216F4A82F86410D3E06D496F
:1014200091F86410052904D06A4991F864100929DB
:1014300061D100205CE0674991F86410654A32F898
:101440001120654931F810108A4222DD614991F876
:101450006410604A32F811305F49421C31F81210B2
:101460008B4216DA5C495E3931F81020594991F8FF
:101470006430143121F83320574A5E3A411C32F867
:101480001120544991F86430143101EBC3014A80B2
:101490002DE0504991F864104E4A32F811204E491F
:1014A00031F810108A4222DA4A4991F86410494A08
:1014B00032F811304849421C31F812108B4216DDC7
:1014C00045495E3931F81020424991F864301431B1
:1014D00001EBC3018A80404A5E3A411C32F8112078
:1014E0003C4991F86430143101EBC301CA80401CBF
:1014F0002E28A0DB60E000205CE0364991F8641003
:10150000344A32F81120354931F810108A4222DD70
:10151000304991F864102F4A32F811302F49421C9B
:1015200031F812108B4216DA2C495E3931F810204E
:10153000284991F86430143121F83320274A5E3A63
:10154000411C32F81120234991F86430143101EB29
:10155000C3014A802DE01F4991F864101D4A32F8FA
:1015600011201E4931F810108A4222DA194991F8E7
:101570006410184A32F811301849421C31F8121020
:101580008B4216DD15495E3931F81020114991F86A
:101590006430143101EBC3018A80104A5E3A411C69
:1015A00032F811200B4991F86430143101EBC3017A
:1015B000CA80401C2E28A0DB064991F86410491C03
:1015C000044A82F86410034991F864100A29FFF66E
:1015D00026AF704798020020480100208C000020B0
:1015E00010B53B480068401C394908600020394963
:1015F00081F864003BE0374890F864000C2822DA58
:10160000344890F8640006280BDA324991F86400F7
:10161000FFF790FC2F4991F864102E4A22F8110030
:101620001EE02C4890F86400072819DD294991F83C
:101630006400FFF77FFC274991F86410891E254A52
:1016400022F811000CE0234991F86400FFF772FCC6
:10165000204991F864100C391E4A663222F81100B4
:101660001C4890F86400401C1A4981F8640019482D
:1016700090F864001028BEDB04211748FFF748FCEF
:10168000144981F8780008211348FFF741FC1149FB
:1016900081F8790010211048FFF73AFC0D4981F8D4
:1016A0007A0020210C48FFF733FC0A4981F87B00BF
:1016B0004FF400710948FFF72BFC064981F87C00C4
:1016C00020210748FFF724FC024981F87D0010BD66
:1016D0000C0000209802002000080240000C02408C
:1016E0000000024000B505480078052805DD04200B
:1016F00000F03AFC00200249087000BD08040020F8
:101700002C00002010B51448007820BB002013499D
:10171000088040F2DC50124908801248418CB0F831
:101720005A00081A00EE900AF8EEE00AB0EE600ADD
:1017300000F0D2F8F0EE000AB4EEE00AF1EE10FA92
:1017400009D2084890F87C0028B9012002490870A5
:1017500000200349088010BD2C000020100000204C
:1017600012000020980200201CB501211C2000F06E
:10177000E7FA1820009000208DF8040003208DF86F
:10178000050001208DF8070069461948FFF755FB51
:101790003C20009000208DF8040003208DF8050007
:1017A00001208DF8070069461248FFF746FB4FF409
:1017B0000070009000208DF8040003208DF80500D3
:1017C00001208DF8070069460B48FFF736FB202003
:1017D000009000208DF8040003208DF80500012002
:1017E0008DF8070069460548FFF727FB1CBD000080
:1017F0000010024000080240000C024000000240BD
:101800001CB50121084600F09BFAC0200090012081
:101810008DF8040000208DF8060003208DF80500E7
:1018200001208DF8070069460348FFF706FBC02139
:101830000148FFF776FB1CBD0000024000BFFEE739
:1018400010B50446224600211A48FFF7A6F9206881
:10185000A0F2012030B101280DD0022814D00328B5
:1018600024D11AE02146144800F0B6FB2146134863
:1018700000F03BFA1BE02146114800F0ADFB214689
:10188000104800F032FA12E021460F4800F0A4FBA5
:1018900021460E4800F029FA09E021460C4800F0E4
:1018A0009BFB21460B4800F020FA00E000BF00BF80
:1018B00010BD000000640040B40100201C020020A4
:1018C000CE01002036020020E80100205002002056
:1018D000020200206A020020F0EE400AF5EEC00A83
:1018E000F1EE10FA02DBB0EE600A7047B1EE600A6A
:1018F000FBE7704770B5002100230F22C4781CB3AA
:10190000174C246804F4E064C4F5E064C4F30721D0
:10191000C1F10404E3B20A4144789C40E1B2847806
:10192000144021430C07210E0E4C057861550478B4
:1019300004F01F050124AC4005786D11AD0005F1E0
:10194000E025C5F8004109E0047804F01F050124F2
:10195000AC40054D0678761145F8264070BD000074
:101960000CED00E000E400E080E100E0024901430A
:10197000024A1160704700000000FA050CED00E01B
:1019800080ED000B80ED021B80ED042B80ED066BDB
:1019900080ED083B80ED0C4B9FED0D7B80ED0E7BC9
:1019A00080ED0A5B9FED0A7B80ED1A7B9FED087B43
:1019B00080ED127B9FED067B80ED107B9FED047B1D
:1019C00080ED187B9FED027B80ED167B7047000059
:1019D00000000000000000002DE9F0412DED068B15
:1019E00004460D461646A81B00F069FFC4E9100125
:1019F00094ED0C2BB0EE420AF0EE620A94ED102B3F
:101A0000B0EE421AF0EE621A53EC102B51EC110BAF
:101A100001F0A6F804D294ED0C0B84ED100B49E014
:101A200094ED0C1BB0EE410AF0EE610A51EC100B84
:101A300000F024FE41EC180B94ED101BB0EE410AAF
:101A4000F0EE610A53EC102B01F08AF80CD294ED01
:101A50000C1BB0EE410AF0EE610A51EC100B00F0E5
:101A60000DFEC4E9100125E094ED101BB0EE410A13
:101A7000F0EE610A51EC100B00F00CFE08EE100ABB
:101A8000B0EE480AFFF728FF10EE107A384601F052
:101A900087F941EC190B94ED081BB0EE410AF0EE0A
:101AA000610A53EC102B00F021FF03D29FED8A0B4B
:101AB00084ED100B94ED122BB0EE420AF0EE620AA8
:101AC00094ED102BB0EE421AF0EE621A53EC102B8C
:101AD00051EC110B01F07AF841EC190B94ED121B4B
:101AE000B0EE410AF0EE610A53EC102B01F06EF8F3
:101AF00041EC180B94ED141BB0EE410AF0EE610AB4
:101B000053EC102B00F0F8FDC4E9160194ED102BF6
:101B1000B0EE420AF0EE620A94ED022BB0EE421AE9
:101B2000F0EE621A53EC102B51EC110B00F01AFF7F
:101B300041EC180B94ED1A1BB0EE410AF0EE610A6D
:101B40009FED671B53EC112B51EC100B00F00AFFBB
:101B500041EC190B53EC182B00F0CEFDC4E91A012F
:101B600094ED0A2BB0EE420AF0EE620A94ED1A2BC5
:101B7000B0EE421AF0EE621A53EC102B51EC110B3E
:101B800000F0EEFF04D294ED0A0B84ED1A0B22E074
:101B900094ED0A1BB0EE410AF0EE610A51EC100B15
:101BA00000F06CFD41EC180B94ED1A1BB0EE410AED
:101BB000F0EE610A53EC102B00F0D2FF0BD294ED43
:101BC0000A1BB0EE410AF0EE610A51EC100B00F076
:101BD00055FDC4E91A0194ED162BB0EE420AF0EE61
:101BE000620A94ED042BB0EE421AF0EE621A53EC46
:101BF000102B51EC110B00F0B5FE41EC190B94EDDC
:101C0000102BB0EE420AF0EE620A94ED002BB0EE1B
:101C1000421AF0EE621A53EC102B51EC110B00F04B
:101C2000A1FE41EC1A0B53EC192B00F0CFFF41EC55
:101C3000180B94ED1A1BB0EE410AF0EE610A53EC5A
:101C4000102B00F059FDC4E90E0194ED120B84ED48
:101C5000140B94ED100B84ED120B94ED062BB0EEEB
:101C6000420AF0EE620A94ED0E2BB0EE421AF0EE4C
:101C7000621A53EC102B51EC110B00F071FF04D2DF
:101C800094ED060B84ED0E0B22E094ED061BB0EEF6
:101C9000410AF0EE610A51EC100B00F0EFFC41EC50
:101CA000180B94ED0E1BB0EE410AF0EE610A53ECF6
:101CB000102B00F055FF0BD294ED061BB0EE410A3D
:101CC000F0EE610A51EC100B00F0D8FCC4E90E01F3
:101CD000BDEC068BBDE8F0810000000000000000B4
:101CE0000000008014AEEF3F704710B504460B466D
:101CF000187BD97A40EA012000B26082204600F0C9
:101D000001F810BDC18A428A891A09B28182B0F9EC
:101D1000141041F25452914204DD018B491C09B266
:101D2000018308E0B0F91410044A914203DA018BF0
:101D3000491E09B20183418AC1827047ACEAFFFFA4
:101D400029B1064A12680243044B1A6004E0034AB0
:101D500012688243014B1A6070470000303802401D
:101D600029B1064A12680243044B1A6004E0034A90
:101D700012688243014B1A607047000040380240ED
:101D800029B1064A12680243044B1A6004E0034A70
:101D900012688243014B1A607047000044380240C9
:101DA00029B1064A12680243044B1A6004E0034A50
:101DB00012688243014B1A607047000024380240C9
:101DC00070B52048008820490988084400B21F499E
:101DD00008801C4800881C490988401A00B21C4928
:101DE00008801C48B0F912201848B0F900101A48B1
:101DF000FFF7F2FD1948B0F912201548B0F90010AC
:101E00001748FFF7E9FD164890ED0E1BB0EE410AAA
:101E1000F0EE610A51EC100B00F022FD04B20E4806
:101E200090ED0E1BB0EE410AF0EE610A51EC100B82
:101E300000F016FD05B200231A462146284600F0A0
:101E400099F870BD1200002010000020140000203E
:101E500016000020B401002018030020CE0100204D
:101E600090030020704710B5532144F61F6000F026
:101E70006DF94FF4FA7000F0CDF810BD0CB50020EC
:101E8000019000903448006840F480303249086086
:101E900000BF3148006800F4003000900198401CF9
:101EA0000190009818B90198B0F5A04FF1D12A48D7
:101EB000006800F4003010B10120009001E0002023
:101EC00000900098012846D123484030006840F037
:101ED00080502149403108602048006840F440406B
:101EE0001E4908601C48083000681B49083108601A
:101EF0000846006840F4004008600846006840F466
:101F0000A05008601648091F0860081F006840F0CC
:101F10008070091F086000BF0F48006800F0007063
:101F20000028F9D040F205700E4908600A480830D0
:101F3000006820F00300084908310860084600687E
:101F400040F00200086000BF03480830006800F05D
:101F50000C000828F8D10CBD003802400070004089
:101F600008544007003C02400149087070470000D7
:101F70002D000020F0B585B004460D4616461F46DC
:101F80004FF40070009000208DF808008DF80900D3
:101F900008208DF80A00200A8DF80B00E1B28DF8B8
:101FA0000C10290A8DF80D10E9B28DF80E10310AC7
:101FB0008DF80F10F1B28DF81010390A8DF811104C
:101FC000F9B28DF8121069460248FEF75EFE05B0C0
:101FD000F0BD0000006400408B7B4A7B43EA022294
:101FE00012B242827047000000B5084890F87900AC
:101FF00030B907480088012802D10420FFF7B4FF58
:10200000024890F879000249088000BD980200203B
:102010001A00002010B5044644F62060011B024857
:1020200000F0DCF910BD000000080040042808D1D1
:102030004FF0E021096941F004014FF0E022116105
:1020400007E04FF0E021096921F004014FF0E022A0
:10205000116170477047000010B51548006840F4E2
:102060007000134908601348006840F001001149EE
:10207000086000200F49083108600E4800680E49CA
:1020800008400C4908600D48091D0860081F0068D9
:1020900020F48020091F0860002006490C310860E8
:1020A000FFF7ECFE4FF0006001498039086010BD79
:1020B00088ED00E000380240FFFFF6FE10300024FB
:1020C00010B50121084800F01BF9012806D1074886
:1020D0000068401C05490860FEF774FE01210248B3
:1020E00000F0FCF810BD00000004004000000020DB
:1020F0007FB505460C4601210220FFF731FE02950F
:10210000ADF804400020ADF80600ADF80C0001A9C0
:102110000D4800F067F9012211460B4800F001F963
:102120000121094800F0DDF81D208DF80000012094
:102130008DF8010003208DF8020001208DF80300C6
:102140006846FFF7D7FB7FBD0004004030B58BB079
:1021500004460D4601210420FFF702FE0121022062
:10216000FFF7EEFD022206212048FEF7AEFE022216
:1021700007211E48FEF7A9FEC020099002208DF815
:10218000280003208DF8290000208DF82A00012066
:102190008DF82B0009A91548FEF74FFEA8B2ADF83F
:1021A00018000020ADF81A000794ADF8200006A929
:1021B0000F4800F017F96020ADF804000120ADF8D9
:1021C00006000220ADF8100001A9094800F0B2F89D
:1021D0000821074800F0ECF80121054800F072F8EA
:1021E0000121034800F07DF80BB030BD000402402F
:1021F0000008004010B53048007800F0800000284A
:1022000054D101212D4800F07BF8D0B12A48007844
:1022100000F04000A8B12848007800F03F003F28B7
:102220000AD12548007840F08000234908704FF01B
:10223000FF302349086004E01F480078401C1E4915
:10224000087004211D4800F05BF878B31A48007844
:1022500000F0400078B11848007840F0800016493E
:102260000870164800F049F8154908600021134825
:1022700000F0A7F81AE000200F4908701049086024
:102280000D48007840F040000B49087000210B48D1
:1022900000F027F80021094800F0A2F802210748C1
:1022A00000F08FF80121054800F01BF805210348D4
:1022B00000F014F810BD000004000020000C0040E5
:1022C0000800002021B1028842F08002028004E070
:1022D00002884FF67F731A4002807047CA43028219
:1022E000704721B1028842F00102028004E00288B6
:1022F0004FF6FE731A40028070470146886B7047A4
:1023000030B50246002000230024158A05EA0103A7
:10231000958905EA010413B10CB1012000E0002009
:1023200030BD1AB183890B43838102E083898B43DB
:102330008381704770B5002400220023058C4FF67E
:10234000FE7635400584028C8388048B4FF68F75AA
:102350002C40B51E2C400D882C43751E2A408D89BB
:102360002A434D882A43104DA84202D00F4DA8425F
:1023700013D14FF6F7752A40CD892A434FF6FB75E6
:102380002A408D882A434FF6FF652B404FF6FF55B4
:102390002B400D8A2B434D8A2B43838004838D6809
:1023A0004563028470BD000000000140000401404C
:1023B0000A460021018B4FF6F77319401143018340
:1023C00070470A460021018C4FF6DF7319404FF623
:1023D000FF7303EA02131943018470474163704796
:1023E0004162704700220288184B98420ED0184B69
:1023F00098420BD0B0F1804F08D0164B984205D0D0
:10240000154B984202D0154B984204D14FF68F736A
:102410001A404B881A43124B984207D0114B9842EE
:1024200004D04FF6FF431A400B891A4302804B68D1
:10243000C3620B880385054B984202D0044B984237
:1024400001D18B7A0386012383827047000001400B
:10245000000401400004004000080040000C00405F
:10246000001000400014004010B540F225512148F2
:1024700000F048F800283BD01E4800F06DF81E49D7
:1024800008701E48008800F4004088BB1B48008884
:1024900000F4804070B1084600780A2803D000207C
:1024A0001649088024E01548008840F4004013498C
:1024B00008801DE0104800780D2806D10F480088DC
:1024C00040F480400D49088012E00B4800780B4929
:1024D0000988C1F30D010A4A505408480088401C7D
:1024E0000649088008460088C72801DD00200880CA
:1024F00010BD000000100140B2010020B00100201A
:102500003C04002070B50246002400230025002072
:1025100040F66A16B14200D100BFC1F3421501F086
:102520001F03012606FA03F3012D02D196893340D9
:1025300006E0022D02D1168A334001E0968A33402C
:102540000C12012606FA04F41688344013B10CB1BB
:10255000012000E0002070BD01468888C0F308001B
:10256000704700BFFEE700BF7047000010B504468B
:102570006FF00400FFF75AFDE11704EB5171C1F34E
:10258000C701074A11701046007800EB4001C1EB0B
:10259000C0104FF6FF7101EAC0000249088010BD6B
:1025A000A6010020A80100204FF4A060FFF7DEF98B
:1025B000A820FFF7DBFF0020FFF7D6FC9FED1D6B87
:1025C0009FED1E5B9FED1F4B9FED203B9FED212B51
:1025D0009FED221B9FED230B2448FFF7D1F99FEDC0
:1025E000156B9FED165B9FED174B9FED183B9FED15
:1025F000192B9FED1A1B9FED1B0B1D48FFF7C0F910
:10260000FFF731FCFFF7FCF8FFF7AEF8FDF7FAFF34
:1026100042F2CF011320FFF76BFDFDF737FF07E014
:10262000FEF7DEFF0020134908601349C1F89C0241
:10263000F6E7000000000000004CBD400000000074
:102640000088A340000000000040BF4000000000E0
:1026500000001840000000E051B8AE3F000000A0AC
:102660009999A93F000000000000F03F18030020E6
:1026700090030020980240420000404281F0004157
:10268000704780F00040704721F00041704720F013
:102690000040704721F00042A2F16052B2F5801F65
:1026A00001F0004328BFD2F17F6C0BD95FEA001C18
:1026B00043EAC20242EB507018BF704728BF20F0B7
:1026C00001007047B2F5801FBCBF184670474FEA43
:1026D000410C1CF5001F02D2084600F0D7BB70B5B4
:1026E00000F0EAF900000089FFF7F6BF4FF0004064
:1026F000A0F580007047000010B591EA030F48BFB5
:1027000083F0004300F16A82841A71EB030C05D256
:10271000121943EB0C03001B61EB0C01DFF824E101
:102720004FEA1154A4EB135C1EEA430F18BF9EEA54
:10273000445F73D023EA0E03DCF1200E21EA04513A
:1027400043F4801332D322FA0CFE10EB0E0023FA6E
:102750000CFE41EB0E01CCF1200E03FA0EFE10EB45
:102760000E0051F10001B1F5801FCCF1200E32D2E4
:1027700001EB045112FA0EF2BDE8104058BF704749
:10278000401C38BF5FEA420218BF7047002814BFE0
:1027900020F0010041F100014FEA410313F5001F51
:1027A00038BF7047A1F1C04100F0D4B9012A43EB12
:1027B0000302ACF1200CDCF11F0E32BF4FF0000E13
:1027C00023FA0CF310EB030041EB0451B4EB115F5F
:1027D000D0D0A1EB045101F5801149085FEA300027
:1027E00001EB04510ED350F1000038BF12FA0EFE77
:1027F00008D1BDE81040C9E7401C38BF5FEA42027B
:10280000CAD1C3E7BDE810404FEA410313F5001FEA
:1028100038BF7047A1F1C04100F09CB99EEA445F07
:1028200008D011EA5E0FBDE8104004BF01F000417E
:1028300000207047BDE8104070B500F03DF900BFC2
:1028400064FBBE3E0000E0FF491058BFC1F14041AB
:102850005B1058BFC3F140438B42EFF300807047D9
:102860004FEA41034FEA5353A3F58063D3F11E03AC
:10287000C8BFD3F1210C0CDD4FF0004242EAC12267
:1028800042EA505232FA03FC8CEAE17CACEBE17094
:102890007047102BC4BF0020704703F5787CBCF153
:1028A000FF3F04D06FF0004282EA2100704770B50C
:1028B00000F002F94992248000207047F2E710F0FE
:1028C000004248BF4042B0FA80F310FA03F10AD048
:1028D000C3F11D0303F580634FEA415002EB03523D
:1028E00002EBD12170474FF00000704751EA030C12
:1028F00017D41CF5801F58BFBCF5801F00F106805F
:10290000994218BF704708BF9042704707D711F52A
:10291000801F58BF13F5801F19D499427047894210
:1029200070471CF5801F08D5BCF5801FF7D58B427A
:1029300018BF704708BF824270474FF4001C1CEB61
:10294000410F38BF1CEB430F01D28B42704770B56B
:1029500000F0B2F8922449004FF000514FF080533C
:10296000FFF772BFDFF848C170B51CEA111E1EBF29
:102970001CEA13159EEA0C0F95EA0C0F00F06F800D
:1029800081EA030423EA4C134EEAD47E21EA4C1177
:1029900041F4801143F48013AE44A1FB024CA0FB30
:1029A0000365AEF17F7E361955EB0C05A1FB034C98
:1029B0004CF10003A0FB021C16EB0C06654153F121
:1029C0000003094218BF46F0010613F4007F0BD143
:1029D0004FEA03314FEA0530340341EA155140EA2A
:1029E00016506FF003020AE04FEAC3214FEAC520F8
:1029F000F40241EA555140EA56506FF0020202EBF0
:102A00002E4201EB025585EACE710AD05FEA440CF2
:102A100018BF24F0004450F1000041F1000120EA09
:102A2000D47040F2FE7C624500D270BDA84214BF53
:102A30004FF080444FF04044002E08BF0024BEF108
:102A4000806FA8BFA1F1C041BDE8704080F28280D4
:102A50004FF0000001F1C04101F0004170479EEAD3
:102A60000C0F0CEA131518BF95EA0C0F06D04FF0A7
:102A7000000081EA030E0EF0004170BD00F01CF86A
:102A80008900013E00F007B800F009B84FEA430C96
:102A90005FEA5C5C08D081EA030100F05BB84FEAB2
:102AA000410C5FEA5C5CF6D14FF0000001497047D1
:102AB0000000FF070000F87F0EF1020E2EF0030E5B
:102AC0005EF8046B364205D4012A43EB030515F585
:102AD000001F12D8012841EB010C1CF5001F0CD877
:102AE0000ED14FEAD17C15F5001F0CEB4C0C0CF10C
:102AF000020C08BF4CEBD37C04E04FF0080C01E063
:102B00004FEAD37C0CEB4C0526FA05F606F00706D7
:102B1000B6F1040C06D20EEB860CBDE870404CF00A
:102B2000010C6047DFE80CF0090B02024FF0004196
:102B30004FF00000A1F5002170BD19461046012894
:102B400051EB010418BFD4F5001484BF002001F03C
:102B5000004170BD0808A0F500114FEA310170472F
:102B600053EA010C17D41CF5801F58BFBCF5801F19
:102B700000F106808B4218BF704708BF8242704741
:102B800007D713F5801F58BF11F5801F19D48B424A
:102B900070479B4270471CF5801F08D5BCF5801F0D
:102BA000F7D5994218BF704708BF904270474FF45D
:102BB000001C1CEB430F38BF1CEB410F01D29942A4
:102BC00070470FB40CBC03BCFFF7C1BE10B591EA4F
:102BD000030F48BF83F000433FF596AD841A71EBB5
:102BE000030C07D212198CF0004C43EB0C03001BB2
:102BF00061EB0C01DFF8A4E14FEA1154A4EB135C84
:102C00001EEA430F18BF9EEA445F00F0B08023EA3B
:102C10006E03524221EA0451C3EB6E0338BF5B1EC0
:102C2000DCF1200E25D322FA0CFE10EB0E0043FA45
:102C30000CFE41EB0E01CCF1200E03FA0EFE10EB60
:102C40000E0051F10001CCF1200E29D412FA0EF23F
:102C500001EB0451BDE8104058BF7047401C1CBF39
:102C6000B2F1004F704700280CBF491C20F0010052
:102C7000704712EB020E43EB030218BF4FF0010E38
:102C80004EEA4202ACF1200CDCF11E0E54D943FA9C
:102C90000CFE10EB0E0051F1FF31CCF11E0ED5D51C
:102CA0000EF1010E12FA0EFE404141EB010101EB63
:102CB000445C5FEA5C5C10D910EBDE7001EB045100
:102CC00038BFBEF1004FBDE8104018BF7047002864
:102CD0000CBF491C20F00100704730D24FEAD42CC1
:102CE00011F5001124F400641BD0B1FA81F20B3A03
:102CF000A41AA41ED2F12003914030FA03F3194321
:102D0000904001EBCC71002C01EB0451BDE8104068
:102D1000A8BF704701F1C0414FF0000001F0004131
:102D20007047B0FA80F310FA03F100D110BDE41A35
:102D3000173C4805C90AE4E701EB045110BD4910EE
:102D400001EB0451BDE810404FEA300002E04FF0C3
:102D5000000170474A0008BF0042F8D0B2F5001FDA
:102D600028BF704701F000414FF0000070479EEA15
:102D7000445F07D011EA5E0FBDE8104004BF002198
:102D800000207047BDE8104070B5FFF795FE00BF0A
:102D900040DFF63E83F00041104670470000E0FF40
:102DA00043004FEAD30C4FEA3C0C43401FBF40079F
:102DB0000CF1605113F0FE4F70471CF0006F03D10F
:102DC00000200CF0004170470CF0004343EA5070C3
:102DD00010B540EACC0000F00EF800BF00000092F1
:102DE0004FEA0001FFF7B6BE4FF000414FF0000080
:102DF000A1F5002170470EF1020E2EF0030E5EF8D1
:102E0000044B244204D44FEA4102B2F17F4F11D85F
:102E10004FEA4003B3F17F4F0CD80ED14FEAD07C7C
:102E2000B2F17F4F0CEB4C0C0CF1020C08BF4CEBD9
:102E3000D17C04E04FF0080C01E04FEAD17C0CEBB0
:102E40004C0324FA03F404F00704B4F1040C06D292
:102E50000EEB840CBDE810404CF0010C6047DFE83D
:102E60000CF0070802024FF00040A0F5800010BDF2
:102E70000846420018BFD2F1807288BF00F00040BF
:102E800010BD4FF04070E1EE100A7047FF2141EA9B
:102E9000D050C00570470000B82E00080000002088
:102EA000B4010000C4010008E02F0008B4010020B4
:102EB000B40900002002000801180312F4011201F5
:102EC0001202120312041205120612071208120946
:102ED000120A120B120C120D120E120F12101211F6
:102EE00012121213121412161218121A121C121E97
:102EF00012201222122412261228122A122C122E0A
:102F0000123012321237123C12411246124B12503A
:102F10001255125A125F12641269126E12C81816F4
:102F20005905A0082F092B09B709280AC30A030C61
:102F30002C0DBC0DED5D08475CD90D980D6B0D2A6D
:102F40000DE90CAA0C5D0CCD0B270B910A160A7A21
:102F500009E80881081B08B2074B070807B3066396
:102F6000061306EF05990563051A0574045B04E56D
:102F700003A3038403310323031603DA02F401BC21
:102F8000211824EC0DA30E070F160F970E930DFEBC
:102F90000B060B3C0A7909E3085708B40753071ED0
:102FA00007D606950668A2E037A5051105B004838B
:102FB0000456042B04F203CF03A70389036B0340D9
:102FC000032F031303D2029E028A0262023F0230E1
:102FD00002F701E501E001CC01C701B301220100C4
:040000050800018965
:00000001FF
