:020000040800F2
:100000003808002029020008910C00086F0B000836
:10001000F50B0008D102000843150008000000009D
:10002000000000000000000000000000C10E0008F9
:10003000930A000800000000210D00084B10000882
:10004000430200084302000843020008430200087C
:10005000430200084302000843020008430200086C
:10006000430200084302000843020008430200085C
:10007000430200084302000843020008430200084C
:10008000430200084302000843020008210400085C
:10009000E503000843020008430200084302000889
:1000A000430200084302000843020008430200081C
:1000B00043020008B510000843020008430200088C
:1000C00043020008430200084302000843020008FC
:1000D0004302000815130008430200084302000809
:1000E00043020008430200084302000843020008DC
:1000F00043020008430200084302000843020008CC
:1001000043020008430200084911000843020008A6
:1001100043020008430200084302000843020008AB
:10012000430200084302000843020008430200089B
:10013000430200084302000843020008430200088B
:10014000430200084302000843020008430200087B
:10015000430200084302000843020008430200086B
:10016000430200084302000843020008430200085B
:10017000430200084302000843020008430200084B
:10018000430200084302000800F002F800F03CF8C7
:100190000AA090E8000C82448344AAF10107DA45E2
:1001A00001D100F031F8AFF2090EBAE80F0013F0F8
:1001B000010F18BFFB1A43F001031847E0140000B9
:1001C00000150000103A24BF78C878C1FAD8520749
:1001D00024BF30C830C144BF04680C6070470000C1
:1001E0000023002400250026103A28BF78C1FBD840
:1001F000520728BF30C148BF0B6070471FB501F0E0
:1002000047FA1FBD10B510BD00F033F81146FFF7D7
:10021000F5FF01F0B9F900F051F803B4FFF7F2FF70
:1002200003BC01F090F900000948804709480047E5
:10023000FEE7FEE7FEE7FEE7FEE7FEE7FEE7FEE796
:10024000FEE7FEE704480549054A064B70470000F3
:100250004D100008890100083802002038080020ED
:1002600038040020380400207047704770477047FA
:100270007047754600F028F8AE46050069465346BB
:1002800020F00700854618B020B5FFF7DBFFBDE87A
:1002900020404FF000064FF000074FF000084FF0ED
:1002A000000B21F00701AC46ACE8C009ACE8C0097E
:1002B000ACE8C009ACE8C0098D4670470446AFF30E
:1002C00000802046FFF7A9FF00487047D4010020B6
:1002D00000BFFEE700B58BB00121084600F04CFDE1
:1002E0000121480600F058FD4FF4C050099002204B
:1002F0008DF8280000208DF82A0003208DF82900B1
:1003000001208DF82B0009A9344800F0C3FB092215
:100310000B21324800F006FC09220C212F4800F086
:1003200001FC00208DF81E008DF81F008DF82000C4
:1003300001208DF8210000208DF822008DF8230087
:100340008DF81A008DF81B0006208DF81C00052082
:100350008DF81D000320ADF8180006A9204800F014
:10036000FAF900208DF812008DF8130001208DF8A5
:1003700014000020ADF80800ADF80A00ADF80C003C
:10038000ADF80E00ADF8100001208DF8150002A8A0
:1003900000F0C4F801220221114800F0D3F9142022
:1003A0008DF8040001208DF8050000208DF806006E
:1003B00001208DF8070001A800F06CFC13208DF8D7
:1003C000040000208DF8050001208DF806008DF84E
:1003D000070001A800F05EFC0BB000BD0000024069
:1003E0000064004010B502210A4800F01BF978B102
:1003F0000421084800F03EF80749064800F01EF8BE
:10040000064A0021034800F030FA044800F0F4FBEB
:1004100010BD00000064004008000032F800002019
:1004200010B50121044800F0FDF818B1012102487F
:1004300000F020F810BD00000064004000220C4BCA
:10044000994202D10023836111E0C1F3130201F04C
:1004500000730BB1C2600AE001F080630BB102616E
:1004600005E001F000630BB1826000E0426070477C
:100470007000F030B1F5007F3AD00FDC202928D091
:1004800006DC01291CD004291DD0082940D11DE01B
:10049000402921D0B1F5807F3AD126E0B1F5004F57
:1004A00031D006DCB1F5806F25D0B1F5006F2FD1CA
:1004B00024E0B1F5803F12D0B1F5003F28D111E022
:1004C000154A826025E00822C26022E01022C26044
:1004D0001FE0082202611CE01022026119E00822DC
:1004E000426016E01022426013E00422426010E0F5
:1004F000042242600DE0042242600AE00022826190
:100500000422426005E0002282610422426000E091
:1005100000BF00BF704700000101010010B50021BD
:10052000837A012202FA03F13D4A126842F0010285
:100530003B4B1A603A4A1C3212688A43384B1C33D0
:100540001A60027BCAB9364A0C3212688A43344BAD
:100550000C331A604288C38842EA0343304A40326F
:10056000847A42F834300288838842EA03432C4A72
:100570004032847A02EBC4025360027B012A19D113
:10058000274A0C3212680A43254B0C331A60428802
:10059000038842EA0343224A4032847A42F83430E4
:1005A000C288838842EA03431D4A4032847A02EBC0
:1005B000C4025360C27A3AB9194A121D12688A43BA
:1005C000174B1B1D1A6006E0154A121D12680A43DC
:1005D000134B1B1D1A60028932B9114A143212687A
:1005E0008A430F4B14331A600289012A06D10C4A40
:1005F000143212680A430A4B14331A60427B012AF0
:1006000006D1074A1C3212680A43054B1C331A6094
:10061000034A126822F00102014B1A6010BD00006B
:100620000066004070B504460D460026606928400B
:10063000002871D0B5F5807F5CD010DC082D35D056
:1006400006DC012D20D0022D24D0042D72D127E00C
:10065000102D31D0202D35D0402D6BD138E0B5F59F
:10066000004F60D009DCB5F5007F49D0B5F5806F4B
:100670004CD0B5F5006F5DD14FE0B5F5803F2DD082
:10068000B5F5003F56D12FE0A0682D4900F0F8F9EC
:10069000064651E0E068032100F0F2F906464BE01F
:1006A000E068082100F0ECF9064645E0E06810211A
:1006B00000F0E6F906463FE02069032100F0E0F98A
:1006C000064639E02069082100F0DAF9064633E0F1
:1006D0002069102100F0D4F906462DE06068082159
:1006E00000F0CEF9064627E06068102100F0C8F956
:1006F000064621E0A069012100F0C2F906461BE090
:10070000A069022100F0BCF9064615E0A0690421A9
:1007100000F0B6F906460FE00FE0A069702100F086
:10072000AFF9064608E06068042100F0A9F9064622
:1007300002E0FFE7002600BF00E00026304670BD63
:10074000010101001AB143690B43436102E04369AF
:100750008B434361704730B5024600200023146884
:1007600024F002041460146844F00104146000E0F2
:100770005B1C546804F001041CB94FF6FF74A342DB
:10078000F6D1546804F001040CB900206CE08C79B7
:10079000012C04D1146844F08004146003E0146850
:1007A00024F080041460CC79012C04D1146844F046
:1007B0004004146003E0146824F0400414600C7AD0
:1007C000012C04D1146844F02004146003E0146880
:1007D00024F0200414604C7A012C04D1146844F0F5
:1007E0001004146003E0146824F0100414608C7A80
:1007F000012C04D1146844F00804146003E0146868
:1008000024F008041460CC7A012C04D1146844F05C
:100810000404146003E0146824F0040414608C7869
:10082000A407CD7844EA05640D7944EA05444D797E
:1008300044EA05540D886D1E2C43D461146824F0DD
:1008400001041460002300E05B1C546804F0010400
:100850001CB14FF6FF74A342F6D1546804F00104B2
:100860000CB1002000E0012030BD10B500F5D873B8
:1008700003EB01131B6803F004031372137A53B9DB
:1008800000F5D87303EB01131B6840F2FF7404EA10
:100890005353136009E000F5D87303EB01131B6891
:1008A0006FF0604404EAD303536000F5D87303EBA0
:1008B00001131B6803F00203537200F5D87303EBB6
:1008C00001135B6803F00F03937200F5D87303EB19
:1008D00001135B681B0AD37400F5D87303EB011393
:1008E0009B68D37200F5D87303EB01139B681C0A55
:1008F000147300F5D87303EB01139B681C0C54733D
:1009000000F5D87303EB01139B681B0E937300F57E
:10091000D87303EB0113DB68D37300F5D87303EBD3
:100920000113DB681C0A147400F5D87303EB011380
:10093000DB681C0C547400F5D87303EB0113DB68FF
:100940001B0E937421B9C36843F02003C36003E016
:10095000036943F02003036110BD10B50246002077
:10096000936803F08063B3F1806F00D110E0936867
:1009700003F00063B3F1006F01D1012008E0936838
:1009800003F08053B3F1805F01D1022000E0042026
:10099000042874D002F5C07303EB00131B6803F046
:1009A000010402F5C07303EB00131C600B7A7BB9E2
:1009B0004B7A0C8843EA445302F5C07404EB0014EC
:1009C0002468234302F5C07404EB0014236010E094
:1009D0000B7A4C6843EAC4034C7A234302F5C07493
:1009E00004EB00142468234302F5C07404EB0014E4
:1009F00023608B7A03F00F038B7202F5C07303EB55
:100A000000135B6823F00F0402F5C07303EB0013BF
:100A10005C6002F5C07303EB00135B688C7A2343C0
:100A200002F5C07404EB001463608B7B1C064B7BE7
:100A300044EA03440B7B44EA0323CC7A234302F5C4
:100A4000C07404EB0014A3608B7C1C064B7C44EA4E
:100A500003440B7C44EA0323CC7B234302F5C0749C
:100A600004EB0014E36002F5C07303EB00131B6892
:100A700043F0010402F5C07303EB00131C6010BDCA
:100A80000246002002EA01030BB1012000E0002031
:100A900070477047F0B50A4600210023002400BFCC
:100AA0003DE0012505FA01F3156805EA03049C42BF
:100AB00034D105684F000326BE40B5430560157963
:100AC0004E00B5400668354305601579012D02D00A
:100AD0001579022D16D185684F000326BE40B54317
:100AE000856055794E00B540866835438560456818
:100AF00001268E40B5434560456896798E40B6B272
:100B000035434560C5684F000326BE40B543C56008
:100B1000D5794E00B540C6683543C560491C1029DB
:100B2000BFD3F0BDF0B5002300244D07ED0E02FA4F
:100B300005F3CE1000F1200555F826504E07F70EAC
:100B40000F26BE40B543CF1000F1200646F82750CF
:100B5000CE1000F1200555F8265045EA0304CE10CA
:100B600000F1200545F82640F0BD0183704700BF25
:100B7000FEE700001CB50121112000F0FDF818204F
:100B8000009000208DF8040003208DF8050001205E
:100B90008DF8070069460648FFF77CFF01200090AA
:100BA00002208DF8070069460248FFF773FF1CBD5D
:100BB00000100240000002401CB50121084600F070
:100BC000DBF8C020009001208DF8040000208DF893
:100BD000060003208DF8050001208DF80700694606
:100BE0000348FFF757FFC0210148FFF7BEFF1CBDB8
:100BF0000000024000BFFEE710B504462246002177
:100C00001A48FFF732FE2068A0F2012030B1012817
:100C10000DD0022814D0032824D11AE0214614480C
:100C200000F0F8F92146134800F07BF81BE021465C
:100C3000114800F0EFF92146104800F072F812E078
:100C400021460F4800F0E6F921460E4800F069F809
:100C500009E021460C4800F0DDF921460B4800F080
:100C600060F800E000BF00BF10BD0000006400405D
:100C7000280000209000002042000020AA00002050
:100C80005C000020C400002076000020DE00002070
:100C90007047000070B5002100230F22C4781CB3F8
:100CA000174C246804F4E064C4F5E064C4F307213D
:100CB000C1F10404E3B20A4144789C40E1B2847873
:100CC000144021430C07210E0E4C05786155047821
:100CD00004F01F050124AC4005786D11AD0005F14D
:100CE000E025C5F8004109E0047804F01F0501245F
:100CF000AC40054D0678761145F8264070BD0000E1
:100D00000CED00E000E400E080E100E00249014376
:100D1000024A1160704700000000FA050CED00E087
:100D2000704710B504460B46187BD97A40EA01207B
:100D300000B26082204600F001F810BDC18A428AEC
:100D4000891A09B28182B0F9141041F254529142C9
:100D500004DD018B491C09B2018308E0B0F91410CD
:100D6000044A914203DA018B491E09B20183418A88
:100D7000C1827047ACEAFFFF29B1064A12680243FC
:100D8000044B1A6004E0034A12688243014B1A6064
:100D9000704700003038024029B1064A1268024309
:100DA000044B1A6004E0034A12688243014B1A6044
:100DB000704700004038024029B1064A12680243D9
:100DC000044B1A6004E0034A12688243014B1A6024
:100DD0007047000044380240F0B500210022002492
:100DE000022500260223324F3F6807F00C0121B193
:100DF000042905D0082937D105E02E4F076036E0D9
:100E00002D4F076033E02A4F3F1F3F68C7F38056DE
:100E1000274F3F1F3F6807F03F036EB1264FB7FBD8
:100E2000F3F7DFF88CC0ACF1040CDCF800C0CCF3B5
:100E3000881C07FB0CF40CE01E4FB7FBF3F7DFF840
:100E400070C0ACF1040CDCF800C0CCF3881C07FBCC
:100E50000CF4174F3F1F3F68C7F301477F1C7D000D
:100E6000B4FBF5F7076002E0124F076000BF00BF58
:100E70000F4F3F6807F0F0010909104F7A5C0768CF
:100E8000D74047600A4F3F6807F4E051890A0B4F8B
:100E90007A5C4768D7408760054F3F6807F4604138
:100EA000490B064F7A5C4768D740C760F0BD000029
:100EB000083802400024F40000127A000C000020E0
:100EC000704700000CB50020019000903448006885
:100ED00040F480303249086000BF3148006800F4B7
:100EE000003000900198401C0190009818B90198BA
:100EF000B0F5A04FF1D12A48006800F4003010B1DD
:100F00000120009001E0002000900098012846D1C7
:100F100023484030006840F080502149403108604B
:100F20002048006840F440401E4908601C480830D2
:100F300000681B49083108600846006840F400401A
:100F400008600846006840F4A05008601648091F71
:100F50000860081F006840F08070091F086000BF2B
:100F60000F48006800F000700028F9D040F20570CA
:100F70000E4908600A480830006820F0030008495C
:100F8000083108600846006840F00200086000BFB1
:100F900003480830006800F00C000828F8D10CBDA8
:100FA000003802400070004008544007003C0240F6
:100FB000F0B585B004460D4616461F464FF4007046
:100FC000009000208DF808008DF8090008208DF8A9
:100FD0000A00200A8DF80B00E1B28DF80C10290AE6
:100FE0008DF80D10E9B28DF80E10310A8DF80F1042
:100FF000F1B28DF81010390A8DF81110F9B28DF890
:10100000121069460248FFF7A8FC05B0F0BD0000C9
:10101000006400408B7B4A7B43EA022212B2428288
:101020007047042808D14FF0E021096941F004011C
:101030004FF0E022116107E04FF0E021096921F053
:1010400004014FF0E02211617047704710B5154858
:10105000006840F47000134908601348006840F0CD
:1010600001001149086000200F49083108600E484E
:1010700000680E4908400C4908600D48091D0860C9
:10108000081F006820F48020091F0860002006491E
:101090000C310860FFF716FF4FF0006001498039FE
:1010A000086010BD88ED00E000380240FFFFF6FE4A
:1010B0001030002410B501210A4800F0BFF80128C3
:1010C0000BD109480068401C0749086000231A46F4
:1010D0004FF4FA710846FFF76BFF0121014800F059
:1010E0009BF810BD00040040000000207FB50546BD
:1010F0000C4601210220FFF74FFE0295ADF8044097
:101100000020ADF80600ADF80C0001A90D4800F074
:10111000BFF8012211460B4800F0A1F8012109484F
:1011200000F07DF81D208DF8000001208DF80100F1
:1011300003208DF8020001208DF803006846FFF7B8
:10114000A9FD7FBD0004004010B53048007800F0D4
:101150008000002854D101212D4800F06FF8D0B153
:101160002A48007800F04000A8B12848007800F034
:101170003F003F280AD12548007840F080002349ED
:1011800008704FF0FF302349086004E01F480078E2
:10119000401C1E49087004211D4800F04FF878B328
:1011A0001A48007800F0400078B11848007840F004
:1011B000800016490870164800F03DF8154908608F
:1011C0000021134800F054F81AE000200F4908707D
:1011D000104908600D48007840F040000B49087045
:1011E00000210B4800F01BF80021094800F04DF8E1
:1011F0000221074800F03CF80121054800F00FF8F3
:101200000521034800F008F810BD0000040000208C
:10121000000C004008000020CA430282704721B140
:10122000028842F00102028004E002884FF6FE7359
:101230001A40028070470146886B704730B50246FD
:10124000002000230024158A05EA0103958905EA98
:10125000010413B10CB1012000E0002030BD1AB12F
:1012600083890B43838102E083898B4383817047A9
:101270000A460021018C4FF6DF7319404FF6FF73C9
:1012800003EA02131943018470474162704700006A
:1012900000220288184B98420ED0184B98420BD06F
:1012A000B0F1804F08D0164B984205D0154B9842AC
:1012B00002D0154B984204D14FF68F731A404B88D9
:1012C0001A43124B984207D0114B984204D04FF664
:1012D000FF431A400B891A4302804B68C3620B8894
:1012E0000385054B984202D0044B984201D18B7A7A
:1012F00003860123838270470000014000040140FF
:101300000004004000080040000C004000100040B5
:101310000014004010B540F225511D4800F053F86C
:1013200010B31B4800F008F9C4B21A48008800F452
:101330000040C8B91748008800F4804060B10A2C0A
:1013400003D000201349088020E01248008840F4B0
:1013500000401049088019E00D2C06D10D48008886
:1013600040F480400B49088010E00A480088C0F330
:101370000D0009490C5407480088401C05490880A5
:1013800008460088C72801DD0020088010BD000045
:1013900000100140240000200C01002001F4007224
:1013A000B2F5007F00D100BFCA430280704721B16F
:1013B000828942F40052828104E082894DF6FF73F3
:1013C0001A408281704770B5024600240023002530
:1013D000002040F66A16B14200D100BFC1F34215A9
:1013E00001F01F03012606FA03F3012D02D19689AD
:1013F000334006E0022D02D1168A334001E0968A7E
:1014000033400C12012606FA04F41688344013B156
:101410000CB1012000E0002070BDF0B503460024AF
:1014200000260025002040F66A17B94200D100BF0F
:101430001846C1F3421401F01F06012707FA06F50A
:10144000012C01D10C3004E0022C01D1103000E05D
:1014500014301AB107682F43076002E00768AF43F2
:101460000760F0BD2DE9FF4705460E460024A14662
:1014700000BFA046B08900B100BF2C8A24F44054BC
:10148000F08804432C82AC8941F20C608443B0881C
:1014900031890843718908430443AC81AC8A24F440
:1014A0004074B0890443AC826846FFF795FC20483D
:1014B000854202D01F48854202D1DDF80C9001E040
:1014C000DDF80890A88900F4004040B109EBC9009C
:1014D00000EB091031684900B0FBF1F707E009EBB8
:1014E000C90000EB091031688900B0FBF1F76420F6
:1014F000B7FBF0F004012009642101FB1078A889F2
:1015000000F4004040B1322000EBC800B0FBF1F025
:1015100000F00700044308E0322000EB08106421CB
:10152000B0FBF1F000F00F0004432C81BDE8FF8711
:10153000001001400014014001468888C0F30800F3
:10154000704700BFFEE700BF7047000010B50446BB
:101550006FF00400FFF765FDE11704EB5171C1F373
:10156000C701074A11701046007800EB4001C1EB3B
:10157000C0104FF6FF7101EAC0000249088010BD9B
:101580001C0000201E0000204FF4A060FFF7BEFBEF
:10159000A820FFF7DBFF4FF4E13000F01FF8FFF762
:1015A0000BFBFFF7E7FAFEF795FE42F2CF0113209F
:1015B000FFF79CFD0CE000231A464FF4FA71084631
:1015C000FFF7F6FC0020034908600349C1F89C02BC
:1015D000F1E70000980240420000404210B588B098
:1015E000044601210846FFF7C7FB01211020FFF741
:1015F000E3FB072209212448FFF794FA07220A2176
:101600002148FFF78FFA4FF4C060069002208DF852
:101610001C008DF81D0000208DF81E0001208DF8A3
:101620001F0006A91848FFF735FA02940020ADF80C
:101630000C00ADF80E00ADF81000ADF814000C2051
:10164000ADF8120002A91148FFF70CFF01210F4865
:10165000FFF7ADFE40210D48FFF7A0FE012240F24A
:1016600025510A48FFF7D9FE25208DF804000320F4
:101670008DF805008DF8060001208DF8070001A8FF
:10168000FFF708FB08B010BD000002400010014049
:101690004FF04070E1EE100A70470000BC160008E1
:1016A0000000002028000000C4010008E416000823
:1016B0002800002010080000E001000800000000E1
:1016C0000000000000000000000000000102030410
:1016D00001020304060708090000000000000000E2
:0416E0000000000006
:040000050800018965
:00000001FF
